{
  "_format": "hh-sol-artifact-1",
  "contractName": "Marriage",
  "sourceName": "contracts/Mariage.sol",
  "abi": [
    {
      "inputs": [],
      "stateMutability": "nonpayable",
      "type": "constructor"
    },
    {
      "inputs": [
        {
          "internalType": "address",
          "name": "_person1",
          "type": "address"
        },
        {
          "internalType": "address",
          "name": "_person2",
          "type": "address"
        }
      ],
      "name": "areMarried",
      "outputs": [
        {
          "internalType": "bool",
          "name": "",
          "type": "bool"
        }
      ],
      "stateMutability": "view",
      "type": "function"
    },
    {
      "inputs": [],
      "name": "spouse1",
      "outputs": [
        {
          "internalType": "address",
          "name": "",
          "type": "address"
        }
      ],
      "stateMutability": "view",
      "type": "function"
    },
    {
      "inputs": [],
      "name": "spouse2",
      "outputs": [
        {
          "internalType": "address",
          "name": "",
          "type": "address"
        }
      ],
      "stateMutability": "view",
      "type": "function"
    }
  ],
  "bytecode": "0x608060405273ab8483f64d9c6d1ecf9b849ae677dd3315835cb26000806101000a81548173ffffffffffffffffffffffffffffffffffffffff021916908373ffffffffffffffffffffffffffffffffffffffff16021790555073ca35b7d915458ef540ade6068dfe2f44e8fa733c600160006101000a81548173ffffffffffffffffffffffffffffffffffffffff021916908373ffffffffffffffffffffffffffffffffffffffff1602179055503480156100b957600080fd5b50610397806100c96000396000f3fe608060405234801561001057600080fd5b50600436106100415760003560e01c80633aa196f61461004657806353605f4814610076578063fb6a90f814610094575b600080fd5b610060600480360381019061005b91906102c1565b6100b2565b60405161006d919061031c565b60405180910390f35b61007e610214565b60405161008b9190610346565b60405180910390f35b61009c61023a565b6040516100a99190610346565b60405180910390f35b60008060009054906101000a900473ffffffffffffffffffffffffffffffffffffffff1673ffffffffffffffffffffffffffffffffffffffff168373ffffffffffffffffffffffffffffffffffffffff1614801561015d5750600160009054906101000a900473ffffffffffffffffffffffffffffffffffffffff1673ffffffffffffffffffffffffffffffffffffffff168273ffffffffffffffffffffffffffffffffffffffff16145b8061020c5750600160009054906101000a900473ffffffffffffffffffffffffffffffffffffffff1673ffffffffffffffffffffffffffffffffffffffff168373ffffffffffffffffffffffffffffffffffffffff1614801561020b575060008054906101000a900473ffffffffffffffffffffffffffffffffffffffff1673ffffffffffffffffffffffffffffffffffffffff168273ffffffffffffffffffffffffffffffffffffffff16145b5b905092915050565b600160009054906101000a900473ffffffffffffffffffffffffffffffffffffffff1681565b60008054906101000a900473ffffffffffffffffffffffffffffffffffffffff1681565b600080fd5b600073ffffffffffffffffffffffffffffffffffffffff82169050919050565b600061028e82610263565b9050919050565b61029e81610283565b81146102a957600080fd5b50565b6000813590506102bb81610295565b92915050565b600080604083850312156102d8576102d761025e565b5b60006102e6858286016102ac565b92505060206102f7858286016102ac565b9150509250929050565b60008115159050919050565b61031681610301565b82525050565b6000602082019050610331600083018461030d565b92915050565b61034081610283565b82525050565b600060208201905061035b6000830184610337565b9291505056fea2646970667358221220952496889e0f4380d581441e7a962f022b26d9ec55fad445e02d118f136f78c964736f6c63430008180033",
  "linkReferences": {},
  "deployedLinkReferences": {}
}