{
  "_format": "hh-sol-artifact-1",
  "contractName": "Scratch",
  "sourceName": "contracts/Scratch.sol",
  "abi": [
    {
      "inputs": [],
      "stateMutability": "nonpayable",
      "type": "constructor"
    },
    {
      "inputs": [
        {
          "internalType": "address",
          "name": "owner",
          "type": "address"
        },
        {
          "internalType": "address",
          "name": "spender",
          "type": "address"
        }
      ],
      "name": "allowance",
      "outputs": [
        {
          "internalType": "uint256",
          "name": "",
          "type": "uint256"
        }
      ],
      "stateMutability": "view",
      "type": "function"
    },
    {
      "inputs": [
        {
          "internalType": "address",
          "name": "spender",
          "type": "address"
        },
        {
          "internalType": "uint256",
          "name": "amount",
          "type": "uint256"
        }
      ],
      "name": "approve",
      "outputs": [
        {
          "internalType": "bool",
          "name": "",
          "type": "bool"
        }
      ],
      "stateMutability": "nonpayable",
      "type": "function"
    },
    {
      "inputs": [
        {
          "internalType": "address",
          "name": "account",
          "type": "address"
        }
      ],
      "name": "balanceOf",
      "outputs": [
        {
          "internalType": "uint256",
          "name": "",
          "type": "uint256"
        }
      ],
      "stateMutability": "view",
      "type": "function"
    },
    {
      "inputs": [],
      "name": "decimals",
      "outputs": [
        {
          "internalType": "uint8",
          "name": "",
          "type": "uint8"
        }
      ],
      "stateMutability": "view",
      "type": "function"
    },
    {
      "inputs": [],
      "name": "symbol",
      "outputs": [
        {
          "internalType": "string",
          "name": "",
          "type": "string"
        }
      ],
      "stateMutability": "view",
      "type": "function"
    },
    {
      "inputs": [],
      "name": "totalSupply",
      "outputs": [
        {
          "internalType": "uint256",
          "name": "",
          "type": "uint256"
        }
      ],
      "stateMutability": "view",
      "type": "function"
    },
    {
      "inputs": [
        {
          "internalType": "address",
          "name": "recipient",
          "type": "address"
        },
        {
          "internalType": "uint256",
          "name": "amount",
          "type": "uint256"
        }
      ],
      "name": "transfer",
      "outputs": [
        {
          "internalType": "bool",
          "name": "",
          "type": "bool"
        }
      ],
      "stateMutability": "nonpayable",
      "type": "function"
    },
    {
      "inputs": [
        {
          "internalType": "address",
          "name": "sender",
          "type": "address"
        },
        {
          "internalType": "address",
          "name": "recipient",
          "type": "address"
        },
        {
          "internalType": "uint256",
          "name": "amount",
          "type": "uint256"
        }
      ],
      "name": "transferFrom",
      "outputs": [
        {
          "internalType": "bool",
          "name": "",
          "type": "bool"
        }
      ],
      "stateMutability": "nonpayable",
      "type": "function"
    }
  ],
  "bytecode": "0x60806040523480156200001157600080fd5b506200002e3369d3c21bcecceda10000006200009760201b60201c565b6040518060400160405280600381526020017f53435200000000000000000000000000000000000000000000000000000000008152506003908162000074919062000387565b506012600460006101000a81548160ff021916908360ff160217905550620004d8565b806000808473ffffffffffffffffffffffffffffffffffffffff1673ffffffffffffffffffffffffffffffffffffffff1681526020019081526020016000206000828254620000e791906200049d565b9250508190555080600260008282546200010291906200049d565b925050819055505050565b600081519050919050565b7f4e487b7100000000000000000000000000000000000000000000000000000000600052604160045260246000fd5b7f4e487b7100000000000000000000000000000000000000000000000000000000600052602260045260246000fd5b600060028204905060018216806200018f57607f821691505b602082108103620001a557620001a462000147565b5b50919050565b60008190508160005260206000209050919050565b60006020601f8301049050919050565b600082821b905092915050565b6000600883026200020f7fffffffffffffffffffffffffffffffffffffffffffffffffffffffffffffffff82620001d0565b6200021b8683620001d0565b95508019841693508086168417925050509392505050565b6000819050919050565b6000819050919050565b600062000268620002626200025c8462000233565b6200023d565b62000233565b9050919050565b6000819050919050565b620002848362000247565b6200029c62000293826200026f565b848454620001dd565b825550505050565b600090565b620002b3620002a4565b620002c081848462000279565b505050565b5b81811015620002e857620002dc600082620002a9565b600181019050620002c6565b5050565b601f82111562000337576200030181620001ab565b6200030c84620001c0565b810160208510156200031c578190505b620003346200032b85620001c0565b830182620002c5565b50505b505050565b600082821c905092915050565b60006200035c600019846008026200033c565b1980831691505092915050565b600062000377838362000349565b9150826002028217905092915050565b62000392826200010d565b67ffffffffffffffff811115620003ae57620003ad62000118565b5b620003ba825462000176565b620003c7828285620002ec565b600060209050601f831160018114620003ff5760008415620003ea578287015190505b620003f6858262000369565b86555062000466565b601f1984166200040f86620001ab565b60005b82811015620004395784890151825560018201915060208501945060208101905062000412565b8683101562000459578489015162000455601f89168262000349565b8355505b6001600288020188555050505b505050505050565b7f4e487b7100000000000000000000000000000000000000000000000000000000600052601160045260246000fd5b6000620004aa8262000233565b9150620004b78362000233565b9250828201905080821115620004d257620004d16200046e565b5b92915050565b610c8e80620004e86000396000f3fe608060405234801561001057600080fd5b50600436106100885760003560e01c806370a082311161005b57806370a082311461012957806395d89b4114610159578063a9059cbb14610177578063dd62ed3e146101a757610088565b8063095ea7b31461008d57806318160ddd146100bd57806323b872dd146100db578063313ce5671461010b575b600080fd5b6100a760048036038101906100a29190610840565b6101d7565b6040516100b4919061089b565b60405180910390f35b6100c5610264565b6040516100d291906108c5565b60405180910390f35b6100f560048036038101906100f091906108e0565b61026e565b604051610102919061089b565b60405180910390f35b6101136104f8565b604051610120919061094f565b60405180910390f35b610143600480360381019061013e919061096a565b61050f565b60405161015091906108c5565b60405180910390f35b610161610557565b60405161016e9190610a27565b60405180910390f35b610191600480360381019061018c9190610840565b6105e9565b60405161019e919061089b565b60405180910390f35b6101c160048036038101906101bc9190610a49565b610720565b6040516101ce91906108c5565b60405180910390f35b600081600160003373ffffffffffffffffffffffffffffffffffffffff1673ffffffffffffffffffffffffffffffffffffffff16815260200190815260200160002060008573ffffffffffffffffffffffffffffffffffffffff1673ffffffffffffffffffffffffffffffffffffffff168152602001908152602001600020819055506001905092915050565b6000600254905090565b6000816000808673ffffffffffffffffffffffffffffffffffffffff1673ffffffffffffffffffffffffffffffffffffffff1681526020019081526020016000205410156102f1576040517f08c379a00000000000000000000000000000000000000000000000000000000081526004016102e890610ad5565b60405180910390fd5b81600160008673ffffffffffffffffffffffffffffffffffffffff1673ffffffffffffffffffffffffffffffffffffffff16815260200190815260200160002060003373ffffffffffffffffffffffffffffffffffffffff1673ffffffffffffffffffffffffffffffffffffffff1681526020019081526020016000205410156103b0576040517f08c379a00000000000000000000000000000000000000000000000000000000081526004016103a790610b41565b60405180910390fd5b816000808673ffffffffffffffffffffffffffffffffffffffff1673ffffffffffffffffffffffffffffffffffffffff16815260200190815260200160002060008282546103fe9190610b90565b92505081905550816000808573ffffffffffffffffffffffffffffffffffffffff1673ffffffffffffffffffffffffffffffffffffffff16815260200190815260200160002060008282546104539190610bc4565b9250508190555081600160008673ffffffffffffffffffffffffffffffffffffffff1673ffffffffffffffffffffffffffffffffffffffff16815260200190815260200160002060003373ffffffffffffffffffffffffffffffffffffffff1673ffffffffffffffffffffffffffffffffffffffff16815260200190815260200160002060008282546104e69190610b90565b92505081905550600190509392505050565b6000600460009054906101000a900460ff16905090565b60008060008373ffffffffffffffffffffffffffffffffffffffff1673ffffffffffffffffffffffffffffffffffffffff168152602001908152602001600020549050919050565b60606003805461056690610c27565b80601f016020809104026020016040519081016040528092919081815260200182805461059290610c27565b80156105df5780601f106105b4576101008083540402835291602001916105df565b820191906000526020600020905b8154815290600101906020018083116105c257829003601f168201915b5050505050905090565b6000816000803373ffffffffffffffffffffffffffffffffffffffff1673ffffffffffffffffffffffffffffffffffffffff16815260200190815260200160002054101561066c576040517f08c379a000000000000000000000000000000000000000000000000000000000815260040161066390610ad5565b60405180910390fd5b816000803373ffffffffffffffffffffffffffffffffffffffff1673ffffffffffffffffffffffffffffffffffffffff16815260200190815260200160002060008282546106ba9190610b90565b92505081905550816000808573ffffffffffffffffffffffffffffffffffffffff1673ffffffffffffffffffffffffffffffffffffffff168152602001908152602001600020600082825461070f9190610bc4565b925050819055506001905092915050565b6000600160008473ffffffffffffffffffffffffffffffffffffffff1673ffffffffffffffffffffffffffffffffffffffff16815260200190815260200160002060008373ffffffffffffffffffffffffffffffffffffffff1673ffffffffffffffffffffffffffffffffffffffff16815260200190815260200160002054905092915050565b600080fd5b600073ffffffffffffffffffffffffffffffffffffffff82169050919050565b60006107d7826107ac565b9050919050565b6107e7816107cc565b81146107f257600080fd5b50565b600081359050610804816107de565b92915050565b6000819050919050565b61081d8161080a565b811461082857600080fd5b50565b60008135905061083a81610814565b92915050565b60008060408385031215610857576108566107a7565b5b6000610865858286016107f5565b92505060206108768582860161082b565b9150509250929050565b60008115159050919050565b61089581610880565b82525050565b60006020820190506108b0600083018461088c565b92915050565b6108bf8161080a565b82525050565b60006020820190506108da60008301846108b6565b92915050565b6000806000606084860312156108f9576108f86107a7565b5b6000610907868287016107f5565b9350506020610918868287016107f5565b92505060406109298682870161082b565b9150509250925092565b600060ff82169050919050565b61094981610933565b82525050565b60006020820190506109646000830184610940565b92915050565b6000602082840312156109805761097f6107a7565b5b600061098e848285016107f5565b91505092915050565b600081519050919050565b600082825260208201905092915050565b60005b838110156109d15780820151818401526020810190506109b6565b60008484015250505050565b6000601f19601f8301169050919050565b60006109f982610997565b610a0381856109a2565b9350610a138185602086016109b3565b610a1c816109dd565b840191505092915050565b60006020820190508181036000830152610a4181846109ee565b905092915050565b60008060408385031215610a6057610a5f6107a7565b5b6000610a6e858286016107f5565b9250506020610a7f858286016107f5565b9150509250929050565b7f496e73756666696369656e742062616c616e6365000000000000000000000000600082015250565b6000610abf6014836109a2565b9150610aca82610a89565b602082019050919050565b60006020820190508181036000830152610aee81610ab2565b9050919050565b7f496e73756666696369656e7420616c6c6f77616e636500000000000000000000600082015250565b6000610b2b6016836109a2565b9150610b3682610af5565b602082019050919050565b60006020820190508181036000830152610b5a81610b1e565b9050919050565b7f4e487b7100000000000000000000000000000000000000000000000000000000600052601160045260246000fd5b6000610b9b8261080a565b9150610ba68361080a565b9250828203905081811115610bbe57610bbd610b61565b5b92915050565b6000610bcf8261080a565b9150610bda8361080a565b9250828201905080821115610bf257610bf1610b61565b5b92915050565b7f4e487b7100000000000000000000000000000000000000000000000000000000600052602260045260246000fd5b60006002820490506001821680610c3f57607f821691505b602082108103610c5257610c51610bf8565b5b5091905056fea2646970667358221220106e5e1e532aeb942b439b0cdef9bfbe1c065496adb2977fa78ffad1ff3435c964736f6c63430008180033",
  "linkReferences": {},
  "deployedLinkReferences": {}
}